:020000040800F2
:1000000000000120D9610008296200082962000867
:100010002962000829620008296200080000000027
:10002000000000000000000000000000296200083D
:100030002962000800000000296200080F4E000835
:100040002962000829620008296200082962000864
:100050002962000829620008894F00088F4F0008B4
:10006000954F00089B4F0008A14F00082962000827
:100070002962000829620008296200082962000834
:100080002962000829620008296200082962000824
:10009000296200082962000829620008A74F0008A9
:1000A000C547000851470008296200087547000845
:1000B00089470008000000000000000029620008D5
:1000C000296200080000000000000000296200080A
:1000D00000000000D1590008E959000800000000A4
:1000E000BD4F000829620008000000000000000069
:1000F0000000000000000000000000000000000000
:10010000000000000000000000000000296200085C
:1001100000000000000000009D470008B1470008F3
:100120002962000829620008296200082962000883
:10013000296200080000000000000000000000002C
:100140002962000829620008296200082962000863
:100150002962000829620008055A0008296200087F
:1001600029620008296200082962000800000000D6
:100170002962000829620008000000000000000059
:0C018000296200082962000829620008BA
:10019000034613F8012B002AFBD1181A01387047C7
:1001A00081F0004102E000BF83F0004330B54FEA28
:1001B00041044FEA430594EA050F08BF90EA020F95
:1001C0001FBF54EA000C55EA020C7FEA645C7FEA28
:1001D000655C00F0E2804FEA5454D4EB5555B8BF4B
:1001E0006D420CDD2C4480EA020281EA030382EABC
:1001F000000083EA010180EA020281EA0303362D4E
:1002000088BF30BD11F0004F4FEA01314FF4801C20
:100210004CEA113102D0404261EB410113F0004F32
:100220004FEA03334CEA133302D0524263EB4303E9
:1002300094EA050F00F0A780A4F10104D5F1200E87
:100240000DDB02FA0EFC22FA05F2801841F10001E2
:1002500003FA0EF2801843FA05F359410EE0A5F1B6
:1002600020050EF1200E012A03FA0EFC28BF4CF0E7
:10027000020C43FA05F3C01851EBE37101F000459D
:1002800007D54FF0000EDCF1000C7EEB00006EEBAA
:100290000101B1F5801F1BD3B1F5001F0CD3490834
:1002A0005FEA30004FEA3C0C04F101044FEA44528B
:1002B00012F5800F80F09A80BCF1004F08BF5FEA12
:1002C000500C50F1000041EB045141EA050130BDF2
:1002D0005FEA4C0C404141EB0101013C28BFB1F504
:1002E000801FE9D291F0000F04BF01460020B1FA4F
:1002F00081F308BF2033A3F10B03B3F120020CDA22
:100300000C3208DD02F1140CC2F10C0201FA0CF0FF
:1003100021FA02F10CE002F11402D8BFC2F1200C64
:1003200001FA02F120FA0CFCDCBF41EA0C0190401A
:10033000E41AA2BF01EB0451294330BD6FEA040463
:100340001F3C1CDA0C340EDC04F11404C4F120024E
:1003500020FA04F001FA02F340EA030021FA04F360
:1003600045EA030130BDC4F10C04C4F1200220FAB7
:1003700002F001FA04F340EA0300294630BD21FAF5
:1003800004F0294630BD94F0000F83F4801306BFBB
:1003900081F480110134013D4EE77FEA645C18BFAF
:1003A0007FEA655C29D094EA050F08BF90EA020F46
:1003B00005D054EA000C04BF1946104630BD91EA3E
:1003C000030F1EBF0021002030BD5FEA545C05D141
:1003D0004000494128BF41F0004130BD14F5800480
:1003E0003CBF01F5801130BD01F0004545F0FE41F4
:1003F00041F470014FF0000030BD7FEA645C1ABF29
:10040000194610467FEA655C1CBF0B46024650EA5F
:10041000013406BF52EA033591EA030F41F400218B
:1004200030BD00BF90F0000F04BF0021704730B511
:100430004FF4806404F132044FF000054FF00001E6
:1004400050E700BF90F0000F04BF0021704730B5A7
:100450004FF4806404F1320410F0004548BF40427C
:100460004FF000013EE700BF42004FEAE2014FEAD1
:1004700031014FEA02701FBF12F07F4393F07F4FAC
:1004800081F06051704732F07F4208BF704793F0AF
:100490007F4F04BF41F40021704730B54FF46074C2
:1004A00001F0004521F000411CE700BF50EA0102C5
:1004B00008BF704730B54FF000050AE050EA01026E
:1004C00008BF704730B511F0004502D5404261EBDE
:1004D00041014FF4806404F132045FEA915C3FF41F
:1004E000D8AE4FF003025FEADC0C18BF03325FEABC
:1004F000DC0C18BF033202EBDC02C2F1200300FA6D
:1005000003FC20FA02F001FA03FE40EA0E0021FA91
:1005100002F11444BDE600BF70B54FF0FF0C4CF47F
:10052000E06C1CEA11541DBF1CEA135594EA0C0F31
:1005300095EA0C0F00F0DEF82C4481EA030621EA6C
:100540004C5123EA4C5350EA013518BF52EA0335A7
:1005500041F4801143F4801338D0A0FB02CE4FF059
:100560000005E1FB02E506F00042E0FB03E54FF089
:100570000006E1FB03569CF0000F18BF4EF0010E81
:10058000A4F1FF04B6F5007F64F5407404D25FEA7D
:100590004E0E6D4146EB060642EAC62141EA555130
:1005A0004FEAC52040EA5E504FEACE2EB4F1FD0C72
:1005B00088BFBCF5E06F1ED8BEF1004F08BF5FEAF0
:1005C000500E50F1000041EB045170BD06F00046A2
:1005D00046EA010140EA020081EA0301B4EB5C044F
:1005E000C2BFD4EB0C0541EA045170BD41F4801147
:1005F0004FF0000E013C00F3AB8014F1360FDEBF6C
:10060000002001F0004170BDC4F10004203C35DA47
:100610000C341BDC04F11404C4F1200500FA05F3CA
:1006200020FA04F001FA05F240EA020001F000426B
:1006300021F0004110EBD37021FA04F642EB0601E1
:100640005EEA430E08BF20EAD37070BDC4F10C040B
:10065000C4F1200500FA04F320FA05F001FA04F2CF
:1006600040EA020001F0004110EBD37041F10001BB
:100670005EEA430E08BF20EAD37070BDC4F12005C6
:1006800000FA05F24EEA020E20FA04F301FA05F22E
:1006900043EA020321FA04F001F0004121FA04F2D6
:1006A00020EA020000EBD3705EEA430E08BF20EAA6
:1006B000D37070BD94F0000F0FD101F000464000E0
:1006C00041EB010111F4801F08BF013CF7D041EA62
:1006D000060195F0000F18BF704703F00046520066
:1006E00043EB030313F4801F08BF013DF7D043EA37
:1006F0000603704794EA0C0F0CEA135518BF95EAED
:100700000C0F0CD050EA410618BF52EA4306D1D173
:1007100081EA030101F000414FF0000070BD50EA92
:10072000410606BF1046194652EA430619D094EA1C
:100730000C0F02D150EA013613D195EA0C0F05D106
:1007400052EA03361CBF104619460AD181EA03015A
:1007500001F0004141F0FE4141F470014FF0000012
:1007600070BD41F0FE4141F4780170BD70B54FF0AD
:10077000FF0C4CF4E06C1CEA11541DBF1CEA13552D
:1007800094EA0C0F95EA0C0F00F0A7F8A4EB05040F
:1007900081EA030E52EA03354FEA013100F0888006
:1007A0004FEA03334FF0805545EA131343EA1263CF
:1007B0004FEA022245EA111545EA10654FEA002684
:1007C0000EF000419D4208BF964244F1FD0404F53D
:1007D000407402D25B084FEA3202B61A65EB030599
:1007E0005B084FEA32024FF480104FF4002CB6EB56
:1007F000020E75EB030E22BFB61A754640EA0C00D6
:100800005B084FEA3202B6EB020E75EB030E22BF15
:10081000B61A754640EA5C005B084FEA3202B6EB56
:10082000020E75EB030E22BFB61A754640EA9C0015
:100830005B084FEA3202B6EB020E75EB030E22BFE5
:10084000B61A754640EADC0055EA060E18D04FEAA3
:10085000051545EA16754FEA06164FEAC30343EA43
:1008600052734FEAC2025FEA1C1CC0D111F4801F10
:100870000BD141EA00014FF000004FF0004CB6E709
:1008800011F4801F04BF01430020B4F1FD0C88BFA8
:10089000BCF5E06F3FF6AFAEB5EB030C04BFB6EBB3
:1008A000020C5FEA500C50F1000041EB045170BDA6
:1008B0000EF0004E4EEA113114EB5C04C2BFD4EBD3
:1008C0000C0541EA045170BD41F480114FF0000E57
:1008D000013C90E645EA060E8DE60CEA135594EAD3
:1008E0000C0F08BF95EA0C0F3FF43BAF94EA0C0FD6
:1008F0000AD150EA01347FF434AF95EA0C0F7FF44B
:1009000025AF104619462CE795EA0C0F06D152EA9E
:1009100003353FF4FDAE1046194622E750EA410682
:1009200018BF52EA43067FF4C5AE50EA41047FF493
:100930000DAF52EA43057FF4EBAE12E74FF0FF3CF8
:1009400006E000BF4FF0010C02E000BF4FF0010CC9
:100950004DF804CD4FEA410C7FEA6C5C4FEA430C42
:1009600018BF7FEA6C5C1BD001B050EA410C0CBF91
:1009700052EA430C91EA030F02BF90EA020F0020F3
:10098000704710F1000F91EA030F58BF994208BF5A
:1009900090422CBFD8176FEAE37040F00100704717
:1009A0004FEA410C7FEA6C5C02D150EA013C07D16E
:1009B0004FEA430C7FEA6C5CD6D152EA033CD3D0B9
:1009C0005DF8040B704700BF8446104662468C46B3
:1009D0001946634600E000BF01B5FFF7B7FF0028E6
:1009E00048BF10F1000F01BD4DF808EDFFF7F4FF0F
:1009F0000CBF012000205DF808FB00BF4DF808ED9A
:100A0000FFF7EAFF34BF012000205DF808FB00BFBC
:100A10004DF808EDFFF7E0FF94BF012000205DF8DE
:100A200008FB00BF4DF808EDFFF7CEFF94BF012093
:100A300000205DF808FB00BF4DF808EDFFF7C4FF8C
:100A400034BF012000205DF808FB00BF4FEA410CD5
:100A50007FEA6C5C02D150EA013C0AD14FEA430CB8
:100A60007FEA6C5C02D152EA033C02D14FF00000F5
:100A700070474FF0010070474A0011D212F5001282
:100A800011D20DD56FF47873B3EB62520ED44FEAE6
:100A9000C12343F0004343EA505323FA02F0704766
:100AA0004FF00000704750EA013002D14FF0FF30A4
:100AB00070474FF0000070474FEA4102B2F1E04347
:100AC00024BFB3F5001CDCF1FE5C0DD901F0004C35
:100AD0004FEAC0024CEA5070B2F1004F40EB830085
:100AE00008BF20F00100704711F0804F21D113F1B1
:100AF0003872BCBF01F00040704741F480114FEAEA
:100B00005252C2F11802C2F1200C10FA0CF320FA72
:100B100002F018BF40F001004FEAC1234FEAD3238F
:100B200003FA0CFC40EA0C0023FA02F34FEA4303F9
:100B3000CCE77FEA625307D150EA01331EBF4FF082
:100B4000FE4040F44000704701F0004040F0FE409D
:100B500040F40000704700BF53B94AB9002908BFEC
:100B600000281CBF4FF0FF314FF0FF3000F00CB8F1
:100B7000ADF1080C6DE904CE05F0BEFEDDF804E031
:100B8000DDE9022304B07047704700BF10B5054C83
:100B9000237833B9044B13B10448AFF30080012329
:100BA000237010BDEC00002000000000D06B000896
:100BB00008B5034B1BB103490348AFF3008008BDE0
:100BC00000000000F0000020D06B0008104B10B5B2
:100BD0001868104C002105F0E1FB0F4B002118684C
:100BE00005F0DCFB0D4B0021186805F0D7FB2068F1
:100BF000012105F0D3FB2068002105F039FCBDE898
:100C00001040074806224FF4E13105F01DB900BF3E
:100C1000200000201C0000202400002008000020EC
:100C200098020020000000002DE9F0412DED068B18
:100C3000834D9FED84AA2868DFF8588282B005F0C2
:100C400007FB0446286805F003FB0444286805F008
:100C5000FFFA7D4B1B6803EB4303E41A044407EEE1
:100C6000904AF8EE677A5A2377EEA77A0093FDEE62
:100C7000E77A6FF0590317EE900A96226FF095010C
:100C800005F08EFA714B724C1A68D3ED018A5A60E6
:100C900007EE900A6F4AC3ED028AF8EEE77A92ED0A
:100CA000009AD4ED009A39EE679AF4EECA9A83ED71
:100CB000009A694B93ED008A29EE088AF1EE10FA4A
:100CC00088ED008A21D5F5EEC09AF1EE10FA1CDB12
:100CD000624BD3ED007A69EE277A17EE900AFFF7A0
:100CE000C3FB55A3D3E90023FFF716FC064619EE14
:100CF000900A0F46FFF7B8FB02460B4630463946CE
:100D0000FFF754FAFFF7D8FE2060D4ED007AF4EE36
:100D1000CA7AF1EE10FA40F38580514B2360514BB3
:100D2000514A93ED007A514B514E524D79EE688AFB
:100D3000F7EE007A77EEC77A68EE878A93ED007A4D
:100D4000E7EE878AF0EE087A88EEA77AD2ED007A8D
:100D500083ED007A67EE277A86ED007A94ED007ACB
:100D6000454BC5ED007A38EE078A444A38EE278AAB
:100D7000D3ED007A116838EE278AFDEEC87A17EEB7
:100D8000903A23EAE3739942A8BF19463C4B18688E
:100D900005F074FA19EE100AFFF766FB41EC100B30
:100DA0000221384805F0ACF93749364805F0C2F859
:100DB0003068FFF759FB41EC100B0221314805F078
:100DC0009FF931492F4805F0B5F8D8F80000FFF732
:100DD0004BFB41EC100B02212A4805F091F92B49FD
:100DE000284805F0A7F82068FFF73EFB41EC100B00
:100DF0000221244805F084F92449224805F09AF894
:100E00002868FFF731FB41EC100B02211D4805F06B
:100E10007AF91F4A13680133136002B0BDEC068BE8
:100E2000BDE8F081F5EEC07AF1EE10FA7FF577AF0C
:100E3000002373E7AFF30080FCA9F1D24D62503F6D
:100E40000800002000004843040000201C0100208E
:100E500018010020100100200000002018000020D0
:100E60000000344328000020140000202801002046
:100E7000140100200C010020100000200C000020B4
:100E80001C00002098020020E86B0008F06B0008AE
:100E9000080100202C0100207047000038B50F4BDE
:100EA0000546187808B9012038BD0D4A4FF47A7309
:100EB000B3FBF0F31068B0FBF3F000F0E7FD04467D
:100EC0000028F0D10F2DEED8024629464FF0FF3012
:100ED00000F088FD034B20461D60E5E72C00002054
:100EE0006C0000203000002010B5032000F068FDE9
:100EF0000020FFF7D3FF044618B9FFF7CDFF2046C7
:100F000010BD0124FBE70000034A044B11681B7865
:100F10000B441360704700BF300100202C000020FC
:100F2000014B1868704700BF3001002038B50446F7
:100F3000FFF7F6FF631C1CBF054B1B78054618BF67
:100F4000E418FFF7EDFF431BA342FAD338BD00BFFF
:100F50002C00002030B5CC0D04F004041430C1F393
:100F60000451235807258D4023EA050302FA01F1B5
:100F70000B43235030BD8068C0F3800070470000F1
:100F800037B5002301930446002800F0BF80456D6B
:100F900025B903F05FFDA56584F85050206883688B
:100FA0009B0041BF836823F0204323F03F0383600D
:100FB0008368DD0040F18A808368D90000F19D805C
:100FC000636D43F010036365A36D43F00103A365F4
:100FD0000121FFF7D0FF636D03F010030343636D3E
:100FE00040F0918023F4817343F00203206863652D
:100FF0008368DA070AD4464B9B68DB0706D4454A68
:101000006568936823F47C132B439360E568636BF6
:1010100094F820202B43A5682B43657E012A43EAE0
:10102000453343EA024302BF626A02F1FF3243EAF8
:101030004243A26A22B1E56A02F470722A43134362
:10104000C568354A2A401343C360FFF794FF2368FD
:101050009A6802F00802024320D1D86894F8302040
:10106000257E520020F4804042EA853220F00200C2
:101070000243DA6094F83820012A40D1D4E90F25E0
:10108000186920F4FF6020F004002A430243606CDA
:101090000243A06C024342F001021A612269012A54
:1010A00005BF186BE2691A6B02F1FF3206BF20F030
:1010B0000F00024322F00F021A63636D23F0030353
:1010C00043F001036365084603B030BD8368134AEB
:1010D00023F0104323F03F0343F080538360104B11
:1010E0001B68B3FBF2F301335B000193019B002B00
:1010F0003FF462AF019B013BF7E7002169E71A6902
:1011000022F00102C9E743F0100363650121DAE729
:10111000000004500003045007C0F0FF400D03001E
:101120006C000020F8B54569082D04460E460AD02B
:101130000368DB68DD0705D5436D43F02003436595
:101140000120F8BD0425FFF7EBFE074623681A6867
:101150002A421DD0626D42F400726265DA6812F4B0
:10116000406F0FD1627E6AB91A6811070AD5626DA5
:1011700022F480726265626DD2045EBF626D42F0DD
:1011800001026265082DD86817D11D600020D8E7DC
:10119000701CDCD0FFF7C4FEC01BB04201D8002E8B
:1011A000D4D123681B682B40D0D1626D84F85030B5
:1011B00042F0040262650320C3E710F48040E5D1E9
:1011C0000C221A60BDE70368186C7047F7B500235E
:1011D000019390F85030012B05460C4600F08F81AA
:1011E000012380F850300068FFF7C5FE002840F06A
:1011F00080814B68052B09D8023B032B00F28C80C1
:10120000DFE803F0028385870C2363606268286847
:101210002368910900F1300701F00C0102F01F0270
:10122000CE594FF01F0CC3F3846393400CFA02F2C3
:1012300026EA02021343CB51FFF79DFE2E68B368E6
:1012400003F0080303431DD13046A2682168FFF76D
:1012500081FE266929682368C868042E01F16002AE
:101260005CD0C0F3C1014800616952F8267081402A
:10127000A44803F0F84338400343194341F00041C8
:1012800042F8261028688368D90733D4E6682368B3
:101290009D4AD0F8B01006F0180CC3F3120722FADA
:1012A0000CF21A4021EA07010A43C0F8B020974A1D
:1012B00096421FD1002F40F086809A0E013202F034
:1012C0001F0601219206092E02F0F84201FA06F1EA
:1012D00000F2A5800A43002F40F091809B0E01335D
:1012E00003F01F0303EB43031B0542EA0301A2685B
:1012F000FFF730FE2168864B194240F0AB8000209A
:10130000002385F8503003B0F0BD12237DE7182389
:101310007BE74FF4807378E7062376E7086E086E64
:10132000C3F31206C0F38460002E38D1C3F3846384
:10133000984202BF0B6E23F000430B664B6E23688E
:10134000486EC3F31206C0F384606EBBC3F38463BC
:10135000984202BF4B6E23F000434B6693682368AC
:101360009168C3F31200C1F3846110BBC3F38463BB
:10137000994202BF936823F000439360D3682368C7
:10138000D168C3F31200C1F38461B8B9C3F38463B5
:10139000994202BFD36823F00043D36072E793FA07
:1013A000A3F3B3FA83F3C3E793FAA3F3B3FA83F394
:1013B000CEE793FAA3F3B3FA83F3D9E793FAA3F34F
:1013C000B3FA83F3E4E793FAA3F636B1B6FA86F2FA
:1013D000511C01F01F01092916D893FAA3F293FAC0
:1013E000A3F1B2FA82F2B1FA81F10131013201F0D6
:1013F0001F069206012102F0F842B1406AE793FA13
:10140000A3F3B3FA83F36AE7B6FA86F6013201363C
:10141000920606F01F06012102F0F842B1400A438D
:101420005FB99E0E013606F01F0606EB46011E3917
:10143000090541F00071114359E793FAA3F1B1FA9C
:1014400081F1013101F01F036FF01D06032111FB33
:101450000361EDE72F4B304A9868914200F0E07449
:101460001ED102023FF54BAF29682C4A91427FF40E
:1014700046AF9A6822F0E072224342F400029A607A
:10148000274B284A1B68B3FBF2F20C2302FB033301
:101490000193019B002B3FF432AF019B013BF7E727
:1014A000214A914211D110F080707FF428AF296851
:1014B000A2F1F74291427FF422AF9A6822F0E072E3
:1014C000224342F080729A601AE7184A91427FF4F0
:1014D00016AF10F480007FF412AF29680F4A9142D2
:1014E0007FF40DAF9A6822F0E072224342F480024A
:1014F000E9E76A6D42F020026A65184600E70220BB
:1015000001E700BF00F0FF03FFFF070000007F407E
:101510000000088000030450000052C7000004507F
:101520006C000020400D0300000084CB010000800F
:10153000406D704770B504460068FFF71CFD2368D6
:101540009A6802F00802024301D1002070BDDA68F7
:1015500090012BD5208B40F20112904226D1284ACF
:101560001968490616D540221A6001211846FFF76E
:1015700002FD58B1226893689E0707D4936823F050
:10158000004323F03F0343F01003936001290FD180
:10159000042522E0013AE3D1636D43F01003636553
:1015A000A36D43F00103A3650120CFE70229DDD13C
:1015B0002268936818070AD593689B0707D4936835
:1015C00023F0004323F03F0343F0200393600229FC
:1015D00014D0032914BF04250C25FFF7A1FC0646EF
:1015E00023689B682B42B0D0FFF79AFC801B05282C
:1015F000F6D923689B682B42F2D0CDE70825ECE7AB
:10160000010040A373B50023026801939368DD07CE
:10161000044602D5002002B070BD9168204B1942EB
:1016200009D0636D43F010036365A36D43F00103BC
:10163000A3650120EFE7936823F0004323F03F0305
:1016400043F001039360174B9B68180219D4FFF70E
:1016500067FC154E054622681368DB07DAD49368E9
:10166000D9075FBF9368334043F001039360FFF7EE
:1016700057FC401B0228EED923681B68DA07EAD41E
:10168000CFE70A4B0A4A1B68B3FBF2F20C2302FBBA
:1016900003330193019B002BD9D0019B013BF8E759
:1016A0003F00008000030450C0FFFF7F6C0000205B
:1016B000400D030038B504460068FFF75CFC0546A2
:1016C000002836D194F85030012B32D0012384F811
:1016D00050302046FFF796FF40BB636D23F47063E4
:1016E00023F0010343F480736365636DDA0448BF3C
:1016F000A36D226852BFA06523F00603A3651C23D7
:101700001360002384F85030D3689B0141BF636DA0
:1017100023F4405343F480536365936823F00043FC
:1017200023F03F0343F00403936038BD84F8505026
:10173000FBE70220F9E7026838B593689168044630
:10174000C80701D4002038BD9907FBD4936803F083
:101750000D03012B19D1936823F0004323F03F03BD
:1017600043F00203936003231360FFF7D9FB0546A0
:1017700023689B68DB07E5D5FFF7D2FB401B0228F7
:10178000F6D923689B68DA07F2D5636D43F010033E
:101790006365A36D43F00103A3650120D3E7000057
:1017A00038B50446002800F08F80436D43F00203F3
:1017B00043650321FFF7BEFE2268D36843F400139C
:1017C000D360054630B92046FFF7B5FF054608B996
:1017D0000123636523683D48596840F2FF72014068
:1017E00059601A60996821F0A0419960996841F0A8
:1017F00000519960DA6836491140D960D96841F0E2
:101800000041D9601A6902401A615A69314802F0F0
:1018100040425A619A6902F078429A611A6A02F06B
:10182000F0221A625A6A02F0FF225A629A6A02F0A1
:10183000FF229A62196B284A0A401A63596B0140C9
:1018400059639A6B02409A63DA6B22F4FB6222F0CE
:101850000702DA63196E214A11401966596E114068
:101860005966996E11409966D96E0A40DA66D3F8C6
:10187000A0201B490A40C3F8A020D3F8A4200A40A6
:10188000C3F8A420D3F8B0200A40C3F8B020D3F89E
:10189000B42022F07F12C3F8B420124B9B68DB0700
:1018A00009D4114A936823F0FF7323F480339360C3
:1018B000204603F0F1F80023C4E91733A36584F848
:1018C00050306365284638BD0125FBE700F8FFFF6F
:1018D00004800080200882E0300882E000F0FF03EE
:1018E0000000F8FF000004500003045010B590F809
:1018F0005030012B044616D0012380F850300321CC
:10190000FFF718FE58B92046FFF715FF38B9636D89
:1019100023F4885323F0010343F00103636500239C
:1019200084F8503010BD0220FCE773B5002301930A
:1019300090F85030012B04460D463ED0012380F82C
:101940005030FFF7F8FE002833D1626D266822F48C
:10195000885222F0020242F002026265B36823F06C
:10196000404323F03F0305F080452B4343F0004301
:10197000B360B368002B12DA019B01330193019B22
:10198000B3F5912FF5D3636D23F0120343F01003E9
:101990006365002384F85030012002B070BD636D90
:1019A00023F0030343F001036365002384F8503000
:1019B000F3E7636D43F01003F6E70220EDE7000064
:1019C0000749CA6822F4E0620302120403F4E063E8
:1019D000120C134343F0BF6343F40033CB607047F2
:1019E00000ED00E0164B30B5DC68C4F30224C4F10E
:1019F0000705231D042D28BF0425062B4FF0FF33B8
:101A00008CBF033C002403FA05F521EA0501A3403D
:101A100022EA0302A140002841EA0203ACBF00F120
:101A20006040084A4FEA0313B8BF00F00F00DBB272
:101A3000AABF00F56140135480F8003330BD00BFE9
:101A400000ED00E014ED00E0002808DB012342096E
:101A500000F01F0003FA00F0014B43F8220070472A
:101A600000E100E000280DDB4309012200F01F0027
:101A700002FA00F02033044A42F82300BFF34F8FEC
:101A8000BFF36F8F704700BF00E100E00138B0F195
:101A9000807F0BD24FF0E023054A5861F02182F895
:101AA00023100020072298611A61704701207047B7
:101AB00000ED00E0002809DB4309012200F01F00CF
:101AC00002FA00F06033024A42F82300704700BF78
:101AD00000E100E0704708B5FFF7FCFF08BD704764
:101AE00010B5044608B9012010BD437F03F0FF0282
:101AF00013B90277FFF7F3FF022363772379E3B982
:101B00002368134A5A619A6822F018029A6062792F
:101B10002368D2B94FF0FF321A619A68616922F0E6
:101B200060020A439A609A68A16922F080020A431F
:101B30009A60012363770020D6E7D4E90212204699
:101B400000F008F80028E2D0CDE72269E4E700BF02
:101B5000B71DC10410B51F23013B1CD321FA03F4A8
:101B6000E407F9D5102A12D004D83AB1082A10D0C7
:101B700001200BE0182AFBD1062BF9D8006841613F
:101B8000836823F018031A438260002010BD072BDE
:101B9000F3E70F2BF1E7002AEAD1EFE710B504468F
:101BA00068B1037903F0FF0213B9427102F0C6FE77
:101BB00002232371002001232061237110BD012025
:101BC000FCE710B5044640B10223037102F012FF96
:101BD000002020616071207110BD0120FCE730B54C
:101BE0004379012B4FF0020316D00371036801F013
:101BF00010051C680122AA4022431A601A6869B9BC
:101C000002F03C02042A03D15A6842F001025A60F1
:101C10000123037100234371184630BD02F4701292
:101C2000B2F5802FF4D15A6842F00202EFE710B506
:101C300004680122236801F0100102FA01F123EA8D
:101C4000010121600271002010BD13B5006800245D
:101C50000194019041B9019908310A440192019A15
:101C60000020136002B010BD01991431F5E7F8B5FA
:101C7000164642790B68012A04460D464FF00200D1
:101C80001ED00122042B627120713AD1FFF748F96E
:101C90000746B6B123685B6B002B6BDB0120FFF7B7
:101CA00045F92368AA695A6415E0FFF739F9C01BA2
:101CB000012806D92369032043F00803236120711A
:101CC000F8BD23685B6B1B04EFD40120FFF72EF9EE
:101CD0002368AA691A64216806F010008A6C40F231
:101CE000FF33834022EA0302EB6983401A438A648C
:101CF000CB6CFF22824023EA02032A6A824013430C
:101D0000CB6429692368012906F0100208D1996B78
:101D10001F20904021EA00006969914001439963C6
:101D2000D96BAE680720904021EA00002968314352
:101D3000EE68314391400143D96319684FF4804004
:101D4000904021EA00011960196840F6FC7090404B
:101D500021EA000069689140014319601968C020B8
:101D600000FA02F221EA02021A6000200123237124
:101D70006071A5E7FFF7D4F8C01B01288AD999E75D
:101D800090F82530022B06D00423C363002380F88B
:101D900024300120704703681A6822F00E021A608E
:101DA0001A6822F001021A60D0E91013012203F030
:101DB0001C0302FA03F34B60002380F8252080F80F
:101DC00024301846704710B590F82520022A03D019
:101DD0000422C263012010BD0268836B116821F0E8
:101DE0000E011160116821F001011160D0E910426B
:101DF000012102F01C0201FA02F26260002480F864
:101E0000251080F8244013B198472046E3E7184690
:101E1000E1E70000044A5169014208B502D050616F
:101E200003F09CF808BD00BF00040140024A13689B
:101E300043F480731360704700700040024B1868D1
:101E400000F4C060704700BF00700040174A13687C
:101E5000B0F5007F03F4C0631DD1B3F5007F01D15D
:101E600000207047136823F4C06343F400731360C9
:101E70000F4B1B6832214B430E49B3FBF1F3013387
:101E80005169490500D523B953695B05E8D503209D
:101E90007047013BF4E7B3F5806F1FBF136823F46D
:101EA000C06343F480631360DAE700BF0070004052
:101EB0006C00002040420F0037B51E4DAB6DDA00BC
:101EC000044618D5FFF7BAFFB0F5007F23D1802C68
:101ED00029D9A02C8CBF02200120174A136823F0B7
:101EE000070303431360136803F00703181A18BFAE
:101EF000012003B030BDAB6D43F08053AB65AB6DDB
:101F000003F080530193019BFFF798FFAB6D23F023
:101F10008053AB65D8E7802C07D808D0A4F17003B4
:101F200058425841D9E70020D7E70320D5E70220DF
:101F3000D3E700BF0010024000200240224B9A6805
:101F4000D96812F00C0205D00C2A15D101F003015A
:101F5000012918D119681D48090755BFD3F89410F5
:101F60001968C1F30321C1F3031150F821004AB3EA
:101F70000C2A09D000207047042A22D0082A1448CD
:101F800018BF002070470020DA6802F00302022A1E
:101F900015D00F49032A08BF0846D968DA68C2F38A
:101FA00006224243D868C0F34160C1F302110130F8
:101FB00001314000B2FBF1F2B2FBF0F0704705488E
:101FC000EBE70448704700BF00100240CC6C0008EB
:101FD00000127A000024F4002DE9F743054608B901
:101FE000012047E0944C0368A668E768DB0606F02A
:101FF0000C0607F0030775D51EB10C2E54D1012F26
:1020000052D12368980702D5AB69002BE8D023682A
:10201000286A190756BFD4F8943023681B0903F0C7
:10202000F003984229D9FFF747FF0028D8D1236849
:1020300043F00803236023682A6A23F0F003134364
:1020400023606368EA6923F47F4343EA0223636001
:10205000FFF774FFA368794AC3F30313D35C03F05B
:102060001F03D840764B1860764B1868FEF716FFB2
:10207000002837D003B0BDE8F083236843F008039D
:102080002360236823F0F003034323606368EA6955
:1020900023F47F4343EA02236360002ED8D1FFF785
:1020A0000BFF0028D4D09BE7AB69002B3AD0236804
:1020B00043F001032360FEF733FF804623689A074D
:1020C00028D5236843F00803236023682A6A23F095
:1020D000F003134323606368EA6923F47F4343EA10
:1020E000022363602B68D8072DD42B6899076BD423
:1020F0002B68180700F1A8802B68590700F1CE80E3
:102100002B68990600F13781AB6A002B40F05D81A6
:102110000020AFE7FEF704FFA0EB08000228CDD9AE
:102120000320A7E7236823F001032360FEF7F8FEEE
:10213000804623689B07D5D5FEF7F2FEA0EB08008A
:102140000228F6D9ECE7082E03D00C2E08D1032F75
:1021500006D123689A03C8D56B68002BC5D13FE729
:102160006B68B3F5803F10D1236843F4803323605C
:10217000FEF7D6FE804623689B03B6D4FEF7D0FE5A
:10218000A0EB08006428F6D9CAE7B3F5A02F04D164
:10219000236843F480232360E6E7226822F4803238
:1021A0002260226822F480222260002BE0D1FEF718
:1021B000B7FE80462368980397D5FEF7B1FEA0EBE3
:1021C00008006428F6D9ABE7042E03D00C2E10D1FA
:1021D000022F0ED12368590503D5EB68002B3FF47D
:1021E000FFAE63682A6923F0F85343EA0263636031
:1021F0007EE7EB687BB1236843F480732360FEF7CE
:102200008FFE074623685A05EBD4FEF789FEC01BF4
:102210000228F7D984E7236823F480732360FEF74C
:102220007FFE074623685B057FF562AFFEF778FE09
:10223000C01B0228F6D973E700100240B46C0008F6
:102240006C000020300000206B699BB1D4F8943002
:1022500043F00103C4F89430FEF762FE0746D4F859
:1022600094309A073FF548AFFEF75AFEC01B02288C
:10227000F5D955E7D4F8943023F00103C4F894302D
:10228000FEF74EFE0746D4F894309B077FF534AF37
:10229000FEF746FEC01B0228F5D941E7A36DD80022
:1022A00029D4A36D43F08053A365A36D03F080533D
:1022B0000193019B4FF00108964F3B68D9051DD54E
:1022C000AB68012B2BD1D4F8903043F00103C4F854
:1022D0009030FEF725FE41F288390746D4F8903059
:1022E0009B0742D5B8F1000F3FF40AAFA36D23F06E
:1022F0008053A36504E74FF00008DDE73B6843F433
:1023000080733B60FEF70CFE81463B68DA05D7D44C
:10231000FEF706FEA0EB09000228F6D900E7052B20
:1023200006D1D4F8903043F00403C4F89030CAE7E3
:10233000D4F8902022F00102C4F89020D4F8902024
:1023400022F00402C4F89020002BC2D1FEF7E8FD71
:1023500041F288390746D4F890309807C2D5FEF785
:10236000DFFDC01B4845F6D9DAE6FEF7D9FDC01BF4
:102370004845B3D9D4E66B6A9BB1D4F8983043F0A2
:102380000103C4F89830FEF7CBFD0746D4F8983027
:102390009A073FF5B9AEFEF7C3FDC01B0228F5D979
:1023A000BEE6D4F8983023F00103C4F89830FEF765
:1023B000B7FD0746D4F898309B077FF5A5AEFEF72A
:1023C000AFFDC01B0228F5D9AAE6022B40F0888099
:1023D000E368EA6A03F00301914222D1296B03F01A
:1023E00070020139B2EB011F1BD1696B03F4FE428D
:1023F000B2EB012F15D1A96B03F07842B2EBC16F9C
:102400000FD1EA6B520803F4C001013AB1EB425F0D
:1024100007D12A6C520803F0C063013AB3EB426F54
:1024200045D00C2E3FF4DCAD23685E013FF5D8ADFE
:10243000236823F080732360FEF772FD064623684D
:1024400098012ED4E268344B1340EA6A13436A6B56
:1024500043EA0223AA6B43EAC2632A6B013A43EAC6
:102460000213EA6B5208013A43EA42532A6C5208BB
:10247000013A43EA4263E360236843F080732360D8
:10248000E36843F08073E360FEF74AFD0546236886
:1024900099013FF53DAEFEF743FD401B0228F6D9FA
:1024A0003EE6FEF73DFD801B0228C8D938E62368CA
:1024B0009A013FF52DAE236843F080732360E368F3
:1024C00043F08073E360FEF72BFD054623689B0114
:1024D0003FF51EAEFEF724FD401B0228F6D91FE68D
:1024E0000C2E3FF47DAD236823F080732360FEF74C
:1024F00017FD0546236813F0007304D1E168074A0D
:102500000A40E26004E6FEF70BFD401B0228F1D909
:1025100006E600BF007000408C809D01FCFFEEFECF
:102520002DE9F0410D46044610B90120BDE8F081C7
:102530004B4A136803F007038B422CD320688607AD
:1025400034D4C1073FD421688A0768D4444A136849
:1025500003F00703AB426FD811F0040F414D77D160
:102560000B0706D5AB68226923F4605343EAC20324
:10257000AB60FFF7E3FCAB683B4AC3F30313BDE872
:10258000F041D35C03F01F03D840384B1860384B40
:102590001868FEF783BC136823F007030B4313602E
:1025A000136803F007038B42BFD1C7E72D4AA66823
:1025B000916801F0F0018E4281BF936823F0F0032F
:1025C00033439360BDE76268264E032A33681AD10D
:1025D00013F0007FA9D0B36823F003031343B36063
:1025E000FEF79EFC41F288380746B368626803F044
:1025F0000C03B3EB820FA6D0FEF792FCC01B404544
:10260000F3D9032092E7022A02D113F4003FE1E755
:1026100012B913F0020FDDE713F4806FDAE7114A05
:10262000A668906800F0F00086423FBF936823F0F0
:10263000F0033343936089E7136823F007032B43C8
:102640001360136803F00703AB427FF46EAF83E7B8
:10265000AB68E26823F4E0631343AB6080E700BF3C
:102660000020024000100240B46C00086C00002002
:1026700030000020054B064A9B68C3F30223D35C5D
:10268000044A106803F01F03D8407047001002404E
:10269000C46C00086C000020054B064A9B68C3F31D
:1026A000C223D35C044A106803F01F03D84070476C
:1026B00000100240C46C00086C0000200F2303606F
:1026C0000B4B9A6802F0030242609A6802F0F00233
:1026D00082609A6802F4E062C2609B68DB0803F4DF
:1026E000E0630361034B1B6803F007030B60704753
:1026F0000010024000200240F8B5434C0368E26835
:10270000054690070E4639D0E26802F003029A426D
:1027100077D1002A75D0E3686A68C3F302130133E6
:1027200093426ED1236823F080632360FEF7F8FBA9
:10273000074623681A0140D4AB681802002E43D024
:10274000012E4CD12A6921695208531E21F4C0027E
:1027500022F4FE42024342EA43522261236843F0DC
:1027600080632360FEF7DCFB064623681B0142D52D
:102770002369AA6913432361002024E0022B11D0AE
:10278000032B13D0012B3CD1226812F0020F38D05A
:10279000E0686A6820F07300013A184340EA0210CA
:1027A000E060BFE7226812F4806FF0E722689103CF
:1027B000EED4226812F4802FE9E7FEF7B1FBC01BCC
:1027C0000228B6D90320F8BD2269EB6840EAC3634A
:1027D00022F0784020F4FE4003432361BEE76B699A
:1027E00022695B08591E22F0C06323F4FE430343B1
:1027F00043EA4163F1E7FEF793FB801B0228B4D95B
:10280000E0E70120DFE700BF001002402DE9F743B9
:10281000056815F40065044609D0C16BB1F5000FD9
:1028200035D0B1F5400F37D0002940D001252368BD
:102830009E0351D5954EB36DD8003FD4B36D43F090
:102840008053B365B36D03F080530193019B01275F
:10285000DFF83C82D8F8003043F48073C8F80030C9
:10286000FEF75EFB8146D8F80030D90528D575BB48
:10287000D6F8903013F4407340F0C780D6F890300B
:10288000226D23F440731343C6F890301FE07F4A53
:10289000D36843F48033D3607C4AE16BD2F888304C
:1028A00023F440030B43C2F888300025BFE704300F
:1028B000FFF722FF05460028B9D1EDE70027C7E75B
:1028C000FEF72EFBA0EB09000228CCD903251FB18F
:1028D000B36D23F08053B3652368DF0708D56B49D8
:1028E000206AD1F8882022F003020243C1F8882030
:1028F0009E0708D56549606AD1F8882022F00C024D
:102900000243C1F88820980608D56049A06AD1F82A
:10291000882022F440620243C1F88820990508D536
:102920005A49606BD1F8882022F440220243C1F852
:1029300088205A0508D55549A06BD1F8882022F483
:1029400040120243C1F888205F0608D54F49E06A6B
:10295000D1F8882022F440520243C1F88820DE05D5
:1029600008D54A49206BD1F8882022F4403202432E
:10297000C1F8882098040FD5444A216CD2F88830D9
:1029800023F040630B43B1F1006FC2F8883066D189
:10299000D36843F48013D360236859030FD53B4AAF
:1029A000616CD2F8883023F040630B43B1F1006FC3
:1029B000C2F888305ED1D36843F48013D3602368B3
:1029C0005A0412D53149A26CD1F8883023F0405313
:1029D0001343B2F1805FC1F8883006D10221201D77
:1029E000FFF78AFE002818BF054623681B0408D598
:1029F000264AE16CD2F8883023F080430B43C2F8BA
:102A00008830284603B0BDE8F083226D93423FF43E
:102A100035AFD6F89020D6F8903043F48033C6F81E
:102A20009030D6F8903022F4407123F48033D207EE
:102A3000C6F89030C6F890107FF520AFFEF770FA18
:102A400041F288398046D6F890309B073FF516AFA3
:102A5000FEF766FAA0EB08004845F4D936E7B1F175
:102A6000806F99D10121201DFFF746FE002818BF75
:102A7000054691E7B1F1806FA1D10121201DFFF73B
:102A80003BFE002818BF054699E700BF0010024032
:102A900000700040024A136843F00403136070475B
:102AA00000100240036A23F001030362036A70B559
:102AB000446882690D6822F4803222F073022A434E
:102AC0008D6823F002032B43124DA84206D0124E0C
:102AD000B04203D006F58066B04214D1CE6823F030
:102AE00008033343A84223F0040306D00A4DA8424A
:102AF00003D005F58065A84205D124F44075D1E9DD
:102B0000054634432C43446082614A684263036251
:102B100070BD00BF002C014000400140036A23F457
:102B200080730362036A426870B5C4690D6824F457
:102B3000803424F073042C438D6823F4007343EA3B
:102B400005230F4DA8420ED1CD6823F4006343EA5C
:102B5000052323F48063D1E9055622F4405235431E
:102B600042EA051205E0074DA842F4D0064DA842FE
:102B7000F1D042604A68C461C263036270BD00BFA5
:102B8000002C01400040014000440140036A23F44E
:102B900080530362026A30B54468C3690D6823F04C
:102BA000807323F4E64343EA05238D6822F4005240
:102BB00042EA05320A4DA84207D005F5A055A842C1
:102BC00003D005F58065A84204D14D6924F4804402
:102BD00044EA85144460C3614B680364026230BDFB
:102BE000002C0140036A23F480330362026A30B58B
:102BF0004468436D0D6823F4803323F070032B4346
:102C00008D6822F4003242EA05420B4DA84207D0FB
:102C100005F5A055A84203D005F58065A84204D16A
:102C20004D6924F4803444EA0524446043654B68CC
:102C30008365026230BD00BF002C0140036A23F4AB
:102C400080130362026A30B54468436D0D6823F057
:102C5000807323F4E04343EA05238D6822F40012D5
:102C600042EA05520A4DA84207D005F5A055A842F0
:102C700003D005F58065A84204D14D6924F4802471
:102C800044EA8524446043654B68C365026230BDF5
:102C9000002C014090F83D30012B1BD102230E4A3D
:102CA00080F83D300368934206D0B3F1804F03D0E3
:102CB00002F5A052934207D19968084A0A40062AB1
:102CC00006D0B2F5803F03D01A6842F001021A60C4
:102CD0000020704701207047002C014007000100D0
:102CE00090F83C30012B4FF0020309D080F83D30C2
:102CF00003685961012380F83D30002380F83C309F
:102D0000184670477047704703681A69910710B5F5
:102D100004460FD5DA6892070CD56FF002021A61EB
:102D2000012202779B69990700F0858001F08CFDF4
:102D30000023237723681A69520710D5DA685007F1
:102D40000DD56FF004021A61022222779B6913F4F9
:102D5000407F204675D001F077FD0023237723685C
:102D60001A6911070FD5DA6812070CD56FF008023F
:102D70001A6104222277DB699B07204667D001F0A5
:102D800063FD0023237723681A69D00610D5DA681B
:102D9000D1060DD56FF010021A6108222277DB6987
:102DA00013F4407F204658D001F04EFD00232377D6
:102DB00023681A69D20708D5DA68D00705D56FF0FD
:102DC00001021A61204601F01CFD23681A691106F0
:102DD00008D5DA68120605D56FF080021A61204620
:102DE00000F0A9FB23681A69D00508D5DA68110636
:102DF00005D56FF480721A61204600F09DFB2368B0
:102E00001A69520608D5DA68500605D56FF04002F7
:102E10001A612046FFF777FF23681A69910622D5C9
:102E2000DA6892061FD56FF0200220461A61BDE8CD
:102E3000104000F07FBB01F005FD2046FFF762FF68
:102E400076E701F0FFFC2046FFF75CFF85E701F025
:102E5000F9FC2046FFF756FF93E701F0F3FC20460C
:102E6000FFF750FFA2E710BD1A4A0368904210B561
:102E700002D0B0F1804F09D14C6823F0700390422A
:102E800043EA040309D0B0F1804F06D0124A9042C1
:102E900003D002F58062904203D1CA6823F44073E4
:102EA00013434A6923F08003134303608B68C362B2
:102EB0000B688362074B984207D003F5A0539842F2
:102EC00003D003F58063984201D10B6903630123AA
:102ED000436110BD002C01400040014010B5044684
:102EE00050B390F83D3003F0FF021BB980F83C204E
:102EF00002F0DAFA0223206884F83D30211DFFF742
:102F0000B3FF012384F84830002084F83E3084F871
:102F10003F3084F8403084F8413084F8423084F8FF
:102F2000433084F8443084F8453084F8463084F8DF
:102F3000473084F83D3010BD0120FCE7036A23F0E0
:102F400010030362036A426870B584690D6824F057
:102F5000807424F4E64444EA05248D6823F02003B9
:102F600043EA05130E4DA8420ED1CD6823F080032D
:102F700043EA051323F04003D1E9055622F44062E9
:102F8000354342EA850205E0064DA842F4D0064DDD
:102F9000A842F1D042604A6884618263036270BDD6
:102FA000002C0140004001400044014038B590F839
:102FB0003C30012B05462BD001200C2A85F83C0023
:102FC0001ED008D8042A13D0082A15D05AB10023DD
:102FD00085F83C3038BD102A16D0142AF7D128685D
:102FE000FFF72CFE02E02868FFF75CFD0020EEE70B
:102FF0002868FFF7A3FFF9E72868FFF78FFDF5E7DB
:103000002868FFF7C3FDF1E72868FFF7EBFDEDE760
:103010000220DFE770B590F83C30012B054679D0EF
:1030200001200C2A85F83C0052D008D8042A2DD063
:10303000082A3CD0C2B1002385F83C3070BD102A6C
:1030400057D0142AF7D12868FFF7F8FD2B680969D3
:103050005A6D42F400625A655A6D22F480625A65D4
:103060005A6D42EA012253E02868FFF71BFD2B68E6
:1030700009699A6942F008029A619A6922F0040289
:103080009A619A690A439A610020D4E72868FFF799
:1030900055FF2B6809699A6942F400629A619A693E
:1030A00022F480629A619A6942EA0122EBE7286879
:1030B000FFF734FD2B680969DA6942F00802DA612A
:1030C000DA6922F00402DA61DA690A43DA61DBE7DD
:1030D0002868FFF75BFD2B680969DA6942F4006232
:1030E000DA61DA6922F48062DA61DA6942EA01229D
:1030F000ECE72868FFF776FD2B6809695A6D42F006
:1031000008025A655A6D22F004025A655A6D0A4344
:103110005A65B9E7022091E770B5046A104E24F0B1
:1031200001040462B0428469056A15D0B0F1804F91
:1031300012D006F5A056B0420ED044F001021B0199
:1031400022F0F002DBB2134301F00A0125F00A027B
:1031500011438361016270BD24F003042243EEE752
:10316000002C0140F8B590F83C30012B05460C4688
:1031700000F08980012085F83C009AB9CB68286866
:10318000D1E90012FFF7C8FF2B68A1689A6922F005
:103190000C029A619A690A439A610020002385F81B
:1031A0003C30F8BD042A23D12B681E6A26F0100695
:1031B000D1E90027C9681E6298691E6A20F4407030
:1031C00040EA0720090320F4704089B2120101434C
:1031D00002F0A00226F0A000024399611A629A69E7
:1031E000A16822F440629A619A6942EA0122D3E717
:1031F000082A22D12B681E6A26F48076D1E90020A5
:10320000C9681E62DF691E6A27F003073843090197
:1032100020F0F000C9B21202014302F4206226F449
:1032200020600243D9611A62DA69A16822F00C02B7
:10323000DA61DA690A43DA61AFE70C2AAED12B68AA
:103240001E6A26F48056D1E90027C9681E62D86933
:103250001E6A20F4407040EA0720090320F4704001
:1032600089B21203014302F4204226F420400243B3
:10327000D9611A62DA69A16822F44062DA61DA6916
:1032800042EA0122D7E702208BE7036A01F01F011F
:1032900010B501248C4023EA04030362036A8A40C8
:1032A0001A43026210BD000010B5044629B990F817
:1032B0003E30012B27D0012043E0042907D190F8AC
:1032C0003F30012BF7D1022380F83F301EE0082960
:1032D0000DD190F84030013B18BF0123002BEAD1FB
:1032E00008294FF002032DD184F840300EE00C295C
:1032F00002D190F84130EEE710290CBF90F842302F
:1033000090F84330E7E7022380F83E30206801223E
:10331000FFF7BBFF23681A498B4206D0194A934234
:1033200003D002F58062934227D15A6C8B4242F45B
:1033300000425A6412D19968134A0A40062A14D1ED
:10334000002010BD0C2902D184F84130DEE710299D
:103350000CBF84F8423084F84330D7E7B3F1804F94
:10336000E9D0084A934203D1E5E7B2F5803FE7D0C0
:103370001A6842F001021A60E2E7B3F1804FF2E707
:10338000002C01400040014007000100FFF78CBF06
:1033900010B5044669BB90F83E30D8B294F844307A
:1033A0000128DBB261D1012B60D1022300293FD17A
:1033B00084F83E3084F8443001222068FFF765FF2E
:1033C00023682B4A934206D0B3F1804F03D002F515
:1033D000A052934207D19968264A0A40062A06D08D
:1033E000B2F5803F03D01A6842F001021A60002053
:1033F0003CE0042905D190F83F30D8B294F845302C
:10340000CEE7082905D190F84030D8B294F846307C
:10341000C6E70C2905D190F84130D8B294F847306E
:10342000BEE710290CBF90F8423090F84330F4E723
:10343000042904D184F83F3084F84530BCE70829DA
:1034400004D184F8403084F84630B5E70C2905D122
:1034500084F84130022384F84730ADE710290CBFCF
:1034600084F8423084F84330F4E7012010BD00BFF7
:10347000002C014007000100036A01F01F0110B594
:1034800004248C4023EA04030362036A8A401A433B
:10349000026210BD10B5044629B990F84430012BE2
:1034A0001DD0012010BD042907D190F84530012B13
:1034B000F7D1022380F8453014E0082907D190F8AD
:1034C0004630012BEDD1022380F846300AE090F817
:1034D0004730012BE5D1022380F8473002E0022378
:1034E00080F8443004222068FFF7C6FF23685A6C36
:1034F00042F400425A640C4A934206D0B3F1804F22
:1035000003D002F5A052934207D19968074A0A40B6
:10351000062A06D0B2F5803F03D01A6842F00102B5
:103520001A600020BEE700BF002C01400700010028
:10353000FFF7B0BF704770477047026852E8003F1E
:1035400023F4907342E8003102680029F5D102F1BA
:10355000080353E8003F23F0010302F1080C4CE894
:1035600000310029F3D1036E012B07D152E8003F4F
:1035700023F0100342E800310029F7D12023C3676C
:103580000023036643667047026852E8003F23F059
:10359000800342E8003102680029F5D152E8003F7B
:1035A00043F0400342E800310029F7D17047826FB1
:1035B000212A034611D1B0F8522092B20AB9FFF77E
:1035C000E3BFC26C016812F8010B0885DA64B3F836
:1035D0005220013A92B2A3F852207047826F212AFA
:1035E000034613D1B0F8522092B20AB9FFF7CCBF0C
:1035F000DA6C006832F8021BC1F308010185DA6455
:10360000B3F85220013A92B2A3F8522070477047A3
:10361000836F202B2CD149B342B390F87430012B27
:1036200026D00023A0F85220C0F8803021238367E1
:103630008368C164B3F5805FA0F8502014D101699C
:103640000C4B0D4A002908BF13468366002380F8FF
:103650007430016851E8002F42F0800241E80023F5
:10366000002BF6D118467047024BEEE70120704759
:1036700002207047AF350008DD35000808B5806AC4
:103680000023A0F85A30A0F8523002F07DF908BDAE
:10369000704700000368DA69196870B540F60F06D4
:1036A00032429D6804460BD1960640F188808E0612
:1036B00040F18580436E002B7BD0BDE870401847F9
:1036C000954E05F001000E40064378D0D50709D588
:1036D000CE0507D501251D62D4F8805045F00105BF
:1036E000C4F88050950708D538B102251D62D4F87A
:1036F000805045F00405C4F88050560708D538B10D
:1037000004251D62D4F8805045F00205C4F88050AD
:1037100015070BD501F02005284307D008201862B3
:10372000D4F8800040F00800C4F8800016050AD5DF
:103730004D0108D54FF400601862D4F8803043F092
:103740002003C4F88030D4F88030002B31D09006AC
:1037500005D58A0603D5636E0BB1204698472368CA
:10376000D4F880509B6805F0280503F040031D4302
:1037700020461FD0FFF7E1FE226893685B0615D54F
:1037800002F1080353E8003F23F0400302F1080070
:1037900040E800310029F3D1206F38B15F4B8363DB
:1037A000FEF711FB28B1206F836B86E7204602F0FD
:1037B000EBF870BD02F0E8F8C4F88050F9E7206E2D
:1037C00001287ED1D6067CD5C8067AD510221A6289
:1037D0009A68510646D5226F11684A6892B2002A4B
:1037E000E7D0B4F858009042E3D9A4F85A200A6808
:1037F00092062DD453E8002F22F4807243E8002172
:103800000029F7D103F1080252E8002F22F001024B
:1038100003F1080040E800210029F3D103F1080278
:1038200052E8002F22F0400203F1080040E8002196
:103830000029F3D12022E267216653E8002F22F00D
:10384000100243E800210029F7D1206FFEF798FA13
:10385000B4F85A30B4F85810C91A89B22046FFF7A4
:1038600017FFA6E7B4F85A108AB2B4F85A1089B212
:1038700000299ED0B4F85810891A89B2002998D02E
:1038800053E8002F22F4907243E800200028F7D17B
:1038900003F1080252E8002F22F0010203F10805AB
:1038A00045E800200028F3D12022E2676066206608
:1038B00053E8002F22F0100243E800200028F7D13F
:1038C000CCE7D60209D5680207D54FF4801220460E
:1038D0001A62BDE8704002F0A1B8160607D50D06C1
:1038E00005D5A36E002B3FF464AF2046E5E65006F5
:1038F0007FF55FAF4A067FF55CAF53E8002F22F0FB
:10390000400243E800210029F7D12023A367A166E4
:10391000204602F035F84CE7200100047D3600080F
:1039200008B5C36F0268222B44D1938CB0F85C10A9
:10393000426D0B401370436D01334365B0F85A304C
:10394000013B9BB2A0F85A30B0F85A309BB26BBB27
:10395000026852E8003F23F4907342E800310368A4
:103960000029F5D103F1080252E8002F22F00102EC
:1039700003F1080C4CE800210029F3D12022C26792
:10398000026E4166012A12D1016653E8002F22F02F
:10399000100243E800210029F7D1DA69B0F8581085
:1039A000D20644BF10221A62FFF772FE08BD01F072
:1039B000E3FFFBE7138B9BB243F008031383F5E7A8
:1039C000C26F222A08B5036841D1998CB0F85C20F7
:1039D0001140426D22F8021B4265B0F85A20013AAC
:1039E00092B2A0F85A20B0F85A2092B25ABB53E8CB
:1039F000002F22F4907243E800210029F7D103F14F
:103A0000080252E8002F22F0010203F1080C4CE8F2
:103A100000210029F3D12022C267026E4166012AEB
:103A200012D1016653E8002F22F0100243E8002172
:103A30000029F7D1DA69B0F85810D20644BF102235
:103A40001A62FFF725FE08BD01F096FFFBE71A8B0F
:103A500092B242F008021A83F5E710B590F874307C
:103A6000012B1CD0012380F8743024238367026863
:103A700052E8003F23F00C0342E800340168002CB8
:103A8000F5D151E8002F42F0080241E80023002B55
:103A9000F7D12022826780F87430184610BD0220CA
:103AA000FCE710B590F87430012B1CD0012380F88E
:103AB000743024238367026852E8003F23F00C032C
:103AC00042E800340168002CF5D151E8002F42F0A3
:103AD000040241E80023002BF7D12022826780F8FE
:103AE0007430184610BD0220FCE7826FC06F10438F
:103AF0007047000070B5044603682169A2681D681C
:103B0000C0690A4361690A436749024329400A437D
:103B10001A605A68E16822F440520A435A60634AC4
:103B2000A16993421CBF226A11439A6822F4306251
:103B30000A439A605E4A934216D15E4BD3F88830AE
:103B400003F00303013B022B00F2A7805A4AD35C27
:103B5000B0F5004F70D1082B20D8DFE803F04FA15B
:103B60006B1F681F1F1F5300544A934206D1514BCD
:103B7000534AD3F8883003F00C03E8E74B4A9342EA
:103B80000CD14C4BD3F8883003F44063B3F5006F8D
:103B900017D005D853B1B3F5806F0FD0012009E0DD
:103BA000B3F5406FFAD14FF400400BE0FEF762FD31
:103BB00040B900200023C4E9193370BDFEF7BEF9F7
:103BC000F6E74048626802EB42038342E6D8B0EB76
:103BD000023FE3D8510800258C464FF480762946F1
:103BE000E0FB06C12B466046FCF7B6FF364BA0F55E
:103BF00040729A42D2D82368D860DAE7FEF73AFDDD
:103C00000028D6D06268530803EB40004FF6EF73EC
:103C1000B0FBF2F0A0F110029A42BFD820F00F03DF
:103C200022689BB2C0F342001843D060C1E7FEF7A0
:103C300085F9E5E72348E5E7082BAFD801A252F85C
:103C400023F000BF813C00088B3C0008973C000833
:103C50009D3B0008913C00089D3B00089D3B0008EF
:103C60009D3B0008693C00084FF40040636800EB8E
:103C70005300B0FBF3F04FF6EF73A0F11002B8E77A
:103C8000FEF7F8FC002894D0F0E7FEF705FDF9E711
:103C9000FEF754F9F6E70B48E8E7B0F5004FF4D12A
:103CA000FEF7FAFCACE700BFF369FFEF00800040CD
:103CB0000038014000100240F56B0008004400404D
:103CC000F86B00080024F400FFFC0F00436ADA07D9
:103CD00010B506D50168846A4A6822F4003222438E
:103CE0004A609C0706D50168C46A4A6822F480329B
:103CF00022434A60590706D50168046B4A6822F4DA
:103D0000802222434A601A0706D50168446B4A683C
:103D100022F4004222434A60DC0606D50168846B27
:103D20008A6822F4805222438A60990606D5016887
:103D3000C46B8A6822F4005222438A605A060FD567
:103D40000168046C4A6822F480122243B4F5801F93
:103D50004A6005D14A68446C22F4C00222434A609A
:103D60001B0606D50268816C536823F400230B43BD
:103D7000536010BD2DE9F041DDF8188004460E4671
:103D800015461F462268D36936EA03030CBF012398
:103D90000023AB4201D0002025E0B8F1FF3FF2D074
:103DA000FDF7BEF8C01B4045206802D8B8F1000FEF
:103DB0001BD150E8003F23F4D07340E80032002AC2
:103DC000F7D100F1080353E8003F23F0010300F1AD
:103DD000080141E80032002AF3D12023A367E367FA
:103DE00084F874200320BDE8F08103685A07C9D520
:103DF000C3691B05C6D54FF40063036250E8003F5A
:103E000023F4D07340E80032002AF7D100F1080310
:103E100053E8003F23F0010300F1080141E80032BC
:103E2000002AF3D12023A367E367C4F88030D7E7E3
:103E300030B50446002585B0C0F88050FDF770F815
:103E4000226812681107034615D4226812685207C7
:103E500009D56FF07E4200924FF480010022204687
:103E6000FFF788FFA0B920230020A36784F874001F
:103E7000E36720660DE06FF07E42009203902A46D1
:103E80004FF400112046FFF775FF039B0028DCD09C
:103E9000032005B030BD10B5044640B3836F1BB995
:103EA00080F87430FFF7B3FB22682423A3671368FC
:103EB00023F0010313602046FFF71CFE012816D0F3
:103EC000636A13B12046FFF701FF23685A6822F4A2
:103ED00090425A609A6822F02A029A601A6842F068
:103EE000010220461A60BDE81040FFF7A1BF012083
:103EF00010BD10B5044660B3836F1BB980F87430F1
:103F0000FFF785FB22682423A367136823F00103CE
:103F100013602046FFF7EEFD01281AD0636A13B143
:103F20002046FFF7D3FE23685A6822F490425A6075
:103F30009A6822F022029A609A6842F008029A6017
:103F40001A6842F0010220461A60BDE81040FFF7EF
:103F50006FBF012010BD0000836810B5B3F5805F0E
:103F6000A0F85820A0F85A204FF0000241654266A0
:103F700032D1036973BB40F2FF13A0F85C30002319
:103F8000C0F880302223C367026802F1080353E8B7
:103F9000003F43F00103083242E800310268002983
:103FA000F2D183680169B3F5805F26D1184B194CB3
:103FB000002918BF23464366002380F87430F1B10E
:103FC00052E8003F43F4907342E800310029F7D1F2
:103FD000002010BDFF23D0E723B90369002BF9D0DF
:103FE0007F23CAE7B3F1805F04D10369002BF7D0C8
:103FF0003F23C2E7A0F85C20C1E7064BDBE752E8AD
:10400000003F43F0200342E800310029F7D1DFE709
:10401000C139000821390008C36F202B30B41FD1EB
:10402000D9B1D2B190F87430012B19D0012380F8A6
:1040300074300023046803660A4B9C420AD063680C
:104040001B0207D554E8003F43F0806344E8003585
:10405000002DF7D130BCFFF77FBF012030BC704787
:104060000220FBE70080004090F87430012B12D052
:10407000012380F87430016801F1080353E8002F30
:1040800042F40002194641E80023002BF3D180F8E6
:104090007430184670470220704790F87430012B36
:1040A00012D0012380F87430016801F1080353E84D
:1040B000002F22F40002194641E80023002BF3D11F
:1040C00080F87430184670470220704790F87430BA
:1040D000012B0FD0012380F87430016851E8002FC4
:1040E00042F0020241E80023002BF6D180F8743040
:1040F000184670470220704790F87430012B0FD09B
:10410000012380F87430016851E8002F22F0020288
:1041100041E80023002BF6D180F874301846704730
:1041200002207047836810B504462BB10322014674
:1041300098470023C4E9023310BD836810B50446D4
:1041400013B1032201469847204610BD4B1E032B96
:104150009ABF880004384FF0FF3070470139435C44
:104160002BB1022907D8054B33F8110070470329FA
:1041700001D8034BF8E74FF0FF3070470A6C000896
:10418000106C0008013903299ABF024B585C4FF0AC
:10419000FF307047186C0008013903299ABF024BA1
:1041A00058564FF0FF307047056C0008F7B50446CD
:1041B000FFF7CCFF0246501C0E4600D1FEE720461A
:1041C000FFF7E0FF411C054600D1FEE731462046DF
:1041D000FFF7C4FF013000D1FEE704EB0617643798
:1041E000BB682BB12369E9431961D8680543DD60D9
:1041F000731E04EB430189880C2943D8DFE801F0E2
:104200004C4C161616070716164444442500E35C6A
:1042100004F11000114623B103B0BDE8F040FFF7F0
:1042200087B903B0BDE8F040FFF7B0B8E35C04F134
:104230001000114623B103B0BDE8F040FFF72AB9E2
:1042400003B0BDE8F040FFF72FB8114604F11000AD
:10425000FFF79EF831462046FFF79EFF2269019046
:1042600001462046FFF77AFF136A1843BB681062C5
:1042700043B101992046FFF785FFC3431361D3681B
:104280001843D06003B0F0BD114604F1100003B034
:10429000BDE8F040FFF77CB823691B68DB07F1D469
:1042A00004F1100003B0BDE8F040FEF7F3BCC36EAC
:1042B00010B5044653B150F8103F6FF001021A6177
:1042C000DA6842F00102DA60FEF7E4FC20460121E0
:1042D000FFF76CFF20460221FFF768FF204603210D
:1042E000FFF764FF20460421BDE81040FFF75EBFE2
:1042F0002DE9F0478CB098460446FFF727FF431C92
:104300000F469146054600D1FEE74FF6FF73059331
:104310002369D0B95B6B069300260123CDE90966BA
:10432000CDE90236079608960B960196049607F19A
:10433000FF3AB9F10C0F36D8DFE809F0181E2E4EFF
:1043400051535C5E6064626B6D00042801D19B6B0D
:10435000E1E7082801D1DB6BDDE70C2801D11B6CFC
:10436000D9E710280CBF9B6DDB6DD4E705962A4674
:1043700005A904F1100014E004EB47077B8843B162
:1043800000237B802A4605A904F110000593FEF75F
:104390000DFE0CB0BDE8F087102305932A4605A951
:1043A000E018FEF703FE04EB4A03B8F1FF3FA3F861
:1043B0000490EED0404601F0BFF8A84245D1234911
:1043C000404600F003FF2149404600F039FFC0F3AA
:1043D000005004F80A00DCE720230593C7E73023E8
:1043E000FBE760232A4605A904F110000593FEF7B8
:1043F00011FED8E77023F5E75023EEE74023ECE702
:10440000022301932A4601A904F11000FEF7AAFE37
:10441000C9E70A23F5E704F110062A4601A9304648
:10442000FEF7A0FE39462046FFF7B6FE04EB400338
:104430000C2201465A8020460223CDE90133FFF7C2
:1044400085FE01A902463046E0E7FEE7A46D0008BC
:10445000013903299ABF00EB410080880020704792
:1044600001211030FEF73CBC03691B68DA0710B568
:104470000C460FD4CB68DB070DD5CB6823F00103C6
:10448000CB60FFF7EDFF6FF001032361E36843F0BA
:104490000103E36010BDBDE81040FFF7E1BF00007D
:1044A000114A9042034615D0B0F1804F14D0A2F5C6
:1044B0008E32904212D002F58062904210D002F506
:1044C000963290420ED04FF6FF70084A934208BFD2
:1044D000052070470020F8E70120F6E7022070472A
:1044E0000320704704207047002C01400044014025
:1044F000014670B5044651F8100FFFF7D1FF05468D
:10450000084600F039FF094A002342F8253004F13B
:104510006406E36004F1B405B54204D0103D2846BA
:10452000FFF70BFEF8E7204670BD00BF3401002006
:10453000F8B504460846FFF7B3FF4FF6FF77B842D9
:1045400000D1FEE7256905B1FEE71F4B84F82C502A
:1045500004F10C0243F8202004F110060E23C4E9F4
:10456000173521613046C4E90C55C4E90E55C4E93C
:104570001055A56484F84C5084F84D50E46000F068
:1045800097FE04F16400FFF7CDFD04F17400FFF71E
:10459000C9FD04F18400FFF7C5FD04F19400FFF7A5
:1045A000C1FD04F1A400FFF7BDFD8023C4E900555F
:1045B000C4E90657C4E90855A5606561A3623046A1
:1045C000BDE8F840FEF78ABC3401002010B5002396
:1045D0000446C366C367C0F88C30C0F89C30C0F88E
:1045E000AC300361FFF7A4FF204610BD10B586B0C4
:1045F00014220446002101A802F02CF80023694689
:1046000001A80093FEF75AF8206900F075FF012811
:1046100002D002280FD0FEE7049CFEF72BF8B4F579
:10462000C06F05D00BD824F48074B4F5806F00D12E
:10463000400006B010BD059CFEF72EF8EFE7B4F57C
:10464000E06FF4E7012A38B505460C460BD0022A84
:1046500016D004B1013C29692846CC62EC61BDE862
:104660003840FFF701BFFFF7C1FF0849B0FBF1F089
:1046700044432B69210C99620131B4FBF1F4E8E762
:10468000FFF7B4FFB0FBF4F4F3E700BF40420F00C4
:104690002DE9F04107461D46FFF758FD3B69411CD7
:1046A000144606469A6A00D1FEE7822D02F10108FF
:1046B00032D01ED8102D09D855B1DA6A02FB044257
:1046C0000124AC40013CB2FBF4F401E0812D19D08F
:1046D0003969CB6A4FF6FF72934203D1B4F5803F3C
:1046E00008BF1C4606BB4C633846BDE8F041FFF7E7
:1046F000BBBE832DECD1DA6A02FB04446422B4FB16
:10470000F2F4E5E73846FFF771FF104AB0FBF2F02C
:104710004443B4FBF8F4DBE73846FFF767FF04FBDC
:1047200008F4B0FBF4F4D3E7042E01D18C63DBE78B
:10473000082E01D1CC63D7E70C2E01D10C64D3E74E
:10474000102E0CBF8C65CC65CEE700BF40420F0039
:1047500010B5074C206810B10430FEF7D5FA606937
:1047600020B1BDE810400430FEF7CEBA10BD00BF46
:1047700034010020034B186810B10430FEF7C4BAAE
:10478000704700BF34010020034B586810B104305B
:10479000FEF7BABA704700BF34010020034B986897
:1047A00010B10430FEF7B0BA704700BF34010020EA
:1047B000034BD86810B10430FEF7A6BA704700BFAB
:1047C00034010020034B186910B10430FEF79CBA85
:1047D000704700BF34010020826810B50AB902F0AA
:1047E000F3F9BDE81040C368184708B500B9FEE703
:1047F00000F05CFD0068C36E13B16430FFF7ECFF9E
:1048000008BDFFF7F2BF10B500B9FEE7037F013B1B
:10481000072B10D8DFE803F014040F100F0F0F124E
:10482000022400F043FD24010068643420448368BE
:104830000BB1FFF7D1FF10BD0324F2E70424F0E72A
:104840000124EEE7FFF7DFBFFFF7DDBF01F0E4BEB5
:1048500001F0EABE84B0032835D8DFE800F002108A
:104860001C281A4BDA6C42F00102DA64DB6C03F0AC
:1048700001030093009B4FF0904004B07047134B2E
:104880001348DA6C42F00202DA64DB6C03F00203D4
:104890000193019BF1E70D4B0E48DA6C42F00402E4
:1048A000DA64DB6C03F004030293029BE5E7074B39
:1048B0000948DA6C42F08002DA64DB6C03F08003B2
:1048C0000393039BD9E70020D7E700BF0010024005
:1048D0000004004800080048001C004808B50649CC
:1048E00000F0AEFCC0F3C430122800D9FEE7034B41
:1048F00053F8200008BD00BFFC6C00081C6C0008C9
:10490000A0F580500138022800D9FEE7014B53F88A
:1049100020007047686C000808B5074900F090FC5B
:10492000C0F3C430012802D0022802D0FEE70020E4
:1049300008BD1020FCE700BF806D000802680A4B2C
:104940009A4282B00AD103F5CE339A6D42F00052FA
:104950009A659B6D03F000530193019B034B04493F
:10496000186802B000F032BC00740040440000201F
:10497000806D0008F0B58FB005460E461746002141
:104980001422684601F066FE2422002105A801F0E9
:1049900061FE1649284600F031FC009018B3284605
:1049A000FFF7BAFF30F0100304461CD1012F0BD0E3
:1049B0003346002221466846FDF747F998B921465B
:1049C0006846FDF70CF90EE0094B68461D60FDF7DF
:1049D000E5F840B9CDE90600224605A96846FDF78D
:1049E00046F90028E4D00FB0F0BD00BF806D00088C
:1049F000440000200268094B9A420DD103F5CE33E2
:104A00009A6B42F000529A639A6B22F000529A63BA
:104A10009A6D22F000529A65704700BF0074004002
:104A200010B50B4986B0044600F0E8FB019060B178
:104A30002046FFF771FF30F01003014605D101A8B1
:104A4000FDF7F5F801A8FDF7BCF806B010BD00BFF2
:104A5000806D00080D4BDA6C42F40052DA64DA6CB7
:104A600082B002F400520192019AD3F8882042F0F9
:104A70004052C3F88820064B1868C30403D4054984
:104A800002B000F0A3BB02B0704700BF00100240AC
:104A900044000020FC6C00080A4BDA6A42F4005221
:104AA000DA62DA6A22F40052DA62DA6A42F4005216
:104AB000DA62DA6A22F40052DA62DA6C22F4005224
:104AC000DA64704700100240F0B5A3B005466422D6
:104AD0000E4609A8002101F0BDFD1822002103A8FF
:104AE00001F0B8FD0023EA04ADF80630029340F16E
:104AF000C98041F203039D4200F2C4806D4B0993CB
:104B00002846FFF7FDFE072704464FF44033082EE2
:104B10000A9300F0C8800A2E00F0C780062E40F0ED
:104B2000C680182304220B930023CDE90C33CDE972
:104B300012330E92ADF83C3001228DF844301493BC
:104B40008DF854308DF85C301E931C938DF87430C2
:104B5000594B109209A84FF4805216921D60FCF731
:104B60000FFA002840F09A80524B099A03949A4217
:104B700040F09480514B9C424AD0514B9C4247D0CC
:104B8000504B9C4244D0504B9C4241D003F1866331
:104B900010339C423CD04D4B9C4239D003F186638C
:104BA00040339C4234D04A4B9C4231D003F186635F
:104BB00003F580739C422BD0464B9C4228D003F1D6
:104BC000042303F540139C4222D003F1866303F5CE
:104BD00000639C421CD0404B9C4219D03F4B9C42EE
:104BE00016D03F4B9C4213D03E4B9C4210D03E4AC5
:104BF00024F0004393420BD03C4A934208D03C4BF4
:104C00009C4205D03B4B9C4202D03B4B9C4245D141
:104C10000623CDE904377F240423CDE9064303A905
:104C2000002309A80893FCF7D1FA002836D12146C1
:104C300009A8FCF77AFE002830D109A8FCF73AFD54
:104C400060BB0A2109A8FCF76DFA38BB09A8FCF77C
:104C50006FFC830505D509A8FCF7B5FA80B2ADF85D
:104C6000060009A8FCF742FEC0B909A8FCF798FDA8
:104C7000A0B9224A936823F0E0739360BDF8060060
:104C800080B20CE01E49284600F0B8FA02A909904B
:104C90002846FFF723FE099B044613B9002023B0E2
:104CA000F0BD022731E710233CE708233AE7002351
:104CB00038E700BF00000450440000200200300428
:104CC000040060080800900C1000C010400020197B
:104CD000000180210004002A002090360040C03AE4
:104CE0000080F03E00002143000052470000844B4A
:104CF0000100008000005AC700008CCB0003045064
:104D0000FC6C00082DE9F34789462549254D984656
:104D10001746064600F072FAFFF7C2FB55F820303E
:104D200004467BB91E49304600F068FA0190B42071
:104D3000FFF78CFD01998246FFF748FC55F82430B7
:104D4000C3F800A055F8243015491C68304600F01F
:104D500077FAC0F3C43529462046FFF779FB0528CA
:104D6000824605D03346052229462046FFF7C0FA81
:104D7000022249462046FFF765FC43463A4629464B
:104D80002046FFF785FCBAF1050F05D0204602B09A
:104D9000BDE8F047FFF78BBA02B0BDE8F08700BF6F
:104DA000A46D00083401002073B51549154D064661
:104DB00000F024FAFFF774FB55F82030044673B96D
:104DC0000F49304600F01AFA0190B420FFF73EFD7B
:104DD00001990646FFF7FAFB55F824301E6055F896
:104DE00024301C684CB12046FFF782FBB4212046DA
:104DF00002B0BDE87040FFF72BBD02B070BD00BF30
:104E0000A46D000834010020FCF78AB8704708B58B
:104E1000FCF77AF8FCF75FFEFFF7F8FF08BD00002B
:104E200010B592B004464422002101A801F012FC02
:104E3000FCF7FCFF032C0CD8DFE804F002121E2E56
:104E40001B4BD3F894309C0703D408230193012310
:104E50000693019B53B301A8FDF7BEF830B3FEE7FC
:104E6000134B1B685905F4D4022301934FF480724D
:104E70001023CDE90423ECE70D4BD3F890209407E1
:104E8000E7D4D3F8902022F01802C3F8902004232E
:104E9000019301230393DCE7054B1B6899035EBF75
:104EA00001224FF48033CDE90123D2E712B010BDC7
:104EB00000100240704700000F4B9A6D42F0805284
:104EC0009A659A6D84B002F080520192019A1A6E2E
:104ED00042F001021A661A6E02F001020292029A70
:104EE0009A6C42F480529A649B6C03F4805303934F
:104EF000039B04B0704700BF001002400C4BD3F876
:104F0000FC20D2015EBFD3F8FC2042F08072C3F8CF
:104F1000FC20084B00225A601A6842F001021A6015
:104F200000BF00BF00BF5868B0FA80F0400970476A
:104F300000ED00E0001000E008B5FFF7BDFFFFF74F
:104F4000DDFFFBF7D1FFFFF7B5FF00F097FDBDE8F0
:104F500008400148FCF7C4BD480000200023012898
:104F600003F1010202D040081346F8E71421DBB236
:104F70004B43044A181D1044816811B113441B6946
:104F8000184770474C0100200120FCF743BF022066
:104F9000FCF740BF0420FCF73DBF0820FCF73ABFF8
:104FA0001020FCF737BF38B505242025A8B2FCF740
:104FB00031FF013C4FEA4505F8D138BD38B506242C
:104FC0004FF48065A8B2FCF725FF013C4FEA450588
:104FD000F8D138BD204B07211975082183F8281016
:104FE000092183F83C100A21062283F8501017216A
:104FF0001A7083F86410002283F8781083F88C10FC
:1050000083F8A01083F8B4102821DA601A625A637A
:105010009A64DA651A67C3F88420C3F89820C3F845
:10502000AC20C3F8C02083F8C810C3F8D42083F89C
:10503000DC10C3F8E82083F8F010C3F8FC2083F8F4
:105040000411C3F8102183F81811C3F8242183F840
:105050002C11C3F8382170474C01002038B5054C9D
:10506000A4F5A075143C201DFFF767F8AC42F9D1F8
:1050700038BD00BF8C02002030B591FAA1F391FA3F
:10508000A1F1B3FA83F3C4685B000325B1FA81F19F
:1050900005FA03F3490024EA03038A401343C3607B
:1050A00030BD431C04D00C3151F80C3C5A1C01D1CA
:1050B00000207047834201F10C01F5D101207047B7
:1050C000F8B5471C06460D4600D1FEE700F00F027A
:1050D0003D4BC0F3031053F82240FFF7BBFB94FA9B
:1050E000A4F2B2FA82F283680327520007FA02F2AE
:1050F00023EA020794FAA4F3B3FA83F359000323D3
:105100008B403B4305F007028360032A03D8DFE8A6
:1051100002F01D1D031DFEE73607C5F306213ED52F
:10512000230A93FAA3F6B6FA86F6476A93FAA3F32C
:10513000B6004FF00F0CB3FA83F30CFA06F69B009F
:1051400027EA060601FA03F33343436294FAA4F113
:10515000B1FA81F103684900032606FA01F123EA56
:10516000010194FAA4F3B3FA83F35B0002FA03F3A8
:10517000013A0B43012A036005D843682A074CBF54
:105180002343A3434360C5F30112012A02D0022A3C
:1051900018BF00222146BDE8F840FFF76DBF94FA22
:1051A000A4F6B6FA86F6036AB6000F2707FA06F6E3
:1051B00023EA060694FAA4F3B3FA83F39B0001FAF8
:1051C00003F333430362C1E7746C0008431C06D148
:1051D0007047834202D18968FFF772BF0C310B68B8
:1051E0005A1CF6D1FEE70B685A1C01D1002070470B
:1051F000834201D1486870470C31F4E7431C01D069
:10520000FFF7F1BF002070474B6813B94FF0FF3034
:105210007047834201D1086870470C31F4E708B148
:10522000FFF7F2BF4FF0FF30704703460868421C9B
:1052300000D17047984201D1886870470C31F5E77A
:10524000431C01D0FFF7F1BF7047884204D018B16A
:1052500000290CBF0146002108467047114B4FF052
:1052600000629A60D3F8882042F47002C3F8882064
:105270000D4B1A68002142F001021A6099601A6809
:1052800022F0A85222F410221A604FF48052DA6001
:105290001A6822F480221A6040F27F7299611A62C1
:1052A000704700BF00ED00E0001002400438704776
:1052B00003682B4A934286B018D102F56442116EFE
:1052C00041F400611166126E02F400620092009ACD
:1052D000244A934236D1244B1A6E42F400321A66A5
:1052E0001B6E03F400330593059B2BE0B3F1804F55
:1052F00013D01E4A93421BD01D4A934224D01D4A0C
:105300009342E5D1184B1A6E42F480321A661B6E36
:1053100003F480330493049B14E0134A916D41F02D
:1053200001019165926D02F001020192019ACFE7AD
:105330000D4B9A6D42F010029A659B6D03F01003BD
:105340000293029B06B07047074B9A6D42F0200211
:105350009A659B6D03F020030393039BF2E700BF64
:10536000002C0140004401400010024000100040A9
:10537000001400400040014003681A4A934208D1DB
:1053800019490A6E22F400620A66184A934223D031
:105390007047B3F1804F0ED0154A934211D0154A91
:1053A000934214D0144A9342EFD10F4A136E23F460
:1053B0008033136670470C498A6D22F001028A65BA
:1053C000E3E7094A936D23F0100393657047064A9B
:1053D000936D23F02003F8E7034A136E23F40033A0
:1053E000E7E700BF002C01400010024000440140EC
:1053F000001000400014004000400140431C18D041
:10540000114B984218D007D8B0F1804F16D0A3F5B1
:105410008063984214D0FEE70C4B984212D003F5FB
:105420008063984203D0A3F5C0539842F3D119206A
:1054300070476FF00D007047372070471C20704791
:10544000362070471820704700140040004001408B
:10545000431C18D0124B984218D00BD8A3F58E33AA
:10546000984215D003F58063984213D0B0F1804F75
:1054700012D0FEE70B4B984210D003F580639842A0
:10548000F7D1192070476FF00D0070471B2070474F
:1054900036207047372070471C207047182070470F
:1054A000002C01400040014038B5FFF701FF0446E1
:1054B0000068FFF7A3FFD4E91312FCF793FA206802
:1054C000FFF79CFFFCF7C0FA22681046FFF7C0FF09
:1054D00005461046FFF792FF85420BD02846D4E9D7
:1054E0001312FCF77FFA2068FFF7B2FFBDE83840DF
:1054F000FCF7AABA38BD0000431C14D00C4B9842EC
:105500000FD009D8A3F58C3398420ED020F48050E8
:10551000B0F1804F09D0FEE7064B20F4806098423E
:10552000F9D102207047002070470120704700BF6A
:10553000002C01400040014008B50649FFF780FEFD
:10554000C0F3C430431E032B00D9FEE780000438AB
:1055500008BD00BFA46D00082DE9F04F87B00446D8
:105560000F46D0F89000A5499846109B01939146AC
:10557000FFF744FEA2498246D4F89400FFF73EFEAE
:10558000A0490646D4F89800FFF738FE9E49054624
:10559000D4F89C00FFF732FE8346BAF1000F00F00A
:1055A000A380D4F89420013202D0002E00F09C8019
:1055B000D4F89820013202D0002D00F09580D4F864
:1055C0009C20013203D0BBF1000F00F08D803146EA
:1055D0005046FFF73AFE29462060FFF736FE59464F
:1055E0002060FFF732FE206000287DD0874B984274
:1055F0007DD103F558431A6C42F480421A641A6C48
:1056000022F480421A641A6E42F480421A661B6EBB
:1056100003F480430393039B2523A4F8A030774928
:10562000D4F89000FFF7D2FD26B17549D4F8940064
:10563000FFF7CCFD002D00F08D807249D4F8980062
:10564000FFF7C4FD4FF4807ABBF1000F06D06E491E
:10565000D4F89C004AF4007AFFF7B8FD94F8A11042
:105660006B4A019B94F9A000C4F80C90251D42F8E8
:1056700021502268C4E901270C22C4E9062A00222D
:10568000C4E90438C4E9092222620121FCF7AAF91D
:105690002268604B9A4240F08880B7F5165F284632
:1056A0005AD8FEF7E1FC2846FEF710FD2846002EEA
:1056B00058D1FEF71EFCB8B1B7F5165F55D80220D9
:1056C000FFF7AEFB2268534B9A4201BF524AD2F811
:1056D000883043F44063C2F888302846002E6BD1EE
:1056E000FEF707FC002840D107B0BDE8F08F4B4B18
:1056F000984215D103F5E6339A6B42F400329A636F
:105700009A6B22F400329A639A6D42F400329A65E1
:105710009B6D03F400330493049B4FF493737CE775
:105720003C4B98427FF47BAF03F5C833DA6B42F011
:105730000102DA63DA6B22F00102DA63DA6D42F019
:105740000102DA65DB6D03F001030593059B40F26E
:10575000462362E7AA4677E7FEF79FFC2846FEF756
:10576000CBFCA3E7FEF797FBA5E72B4F3B685B0558
:1057700025D42268274B9A4205D1D7F8883023F4E4
:105780004063C7F8883028467EBBFEF7B2FB00288E
:10579000AAD022681F4B9A4207D1D7F8883023F449
:1057A000406343F48063C7F88830284606BB07B0DF
:1057B000BDE8F04FFEF79DBBFEF76DFB92E7154B82
:1057C00022689A4201BFD7F8883023F4406343F43B
:1057D0000063C7F88830284626B9FEF78AFB002800
:1057E000C7D181E7FEF757FBF9E7FEF754FBCEE799
:1057F00007B0BDE8F04FFEF74EBB00BF546F000886
:105800000C6F0008D06E0008946E0008003801404C
:105810008C02002000800040001002400044004044
:1058200010B418B15DF8044BFFF796BE5DF8044B59
:105830007047000008B5074B90F8A12053F82200EC
:10584000FEF753F900F02200A0F12203584258411C
:1058500008BD00BF8C02002008B5074B90F8A120BE
:1058600053F82200FEF741F900F02100A0F12103D6
:105870005842584108BD00BF8C02002070B50E464A
:10588000054610B94FF0FF3070BDFFF7D3FF044657
:105890000028F7D12946012211F8A23F337095F86C
:1058A000A100034B53F82000FEF7B6FB2046EBE7C0
:1058B0008C02002038B50D460446C0B1FFF7BAFF90
:1058C000A8B994F9A000C4F88850FCF7CBF894F874
:1058D000A100074B04F1A20153F820000122FEF7BA
:1058E0009BFB94F9A000BDE83840FCF7ADB838BD8B
:1058F0008C02002038B515460446C8B1C0F88C109B
:1059000090F9A000FCF7AEF8D4F8A830B4F8B210C3
:1059100094F8A10013FA81F1064BAAB253F82000C3
:10592000FDF776FE94F9A000BDE83840FCF78CB88E
:1059300038BD00BF8C02002050B1D0F89430013344
:1059400006D190F8A120034B53F82200FEF785B84A
:10595000704700BF8C02002050B1D0F89430013362
:1059600006D190F8A120034B53F82200FEF799B816
:10597000704700BF8C020020D0F8843004381847EC
:10598000D0F88830043818470368DA69D20710B5B0
:1059900004460DD501221A62201FFFF74BFFB0B954
:1059A00004F19E0120460122BDE81040FEF734BB01
:1059B000DA69900701D50222EDE7DA69510701D5CE
:1059C0000422E8E7DA691207E6D50822E3E710BD0A
:1059D00008B52520FCF76EF8024B1868BDE80840B2
:1059E000FDF758BE8C02002008B52620FCF762F8AF
:1059F000034B586818B1BDE80840FDF74BBE08BD21
:105A00008C02002008B54620FCF754F8024B986839
:105A1000BDE80840FDF73EBE8C020020012200F1E7
:105A20009E01FEF7F9BA000010B50A4C226813185F
:105A3000EFF308818B4206D9074B0C221A604FF016
:105A4000FF32104610BD05490548091A8B42F3D2B2
:105A50002360F6E77000002004040020000001200D
:105A600000040000FEE70000024B16221A604FF00F
:105A7000FF307047040400200120704770B51424E3
:105A8000ACB02246002101A800F0E4FD2422002150
:105A900007A800F0DFFD5422002117A800F0DAFD6E
:105AA0006023022506940E9301242823072606A8C6
:105AB000CDE91054CDE91336CDE9155508940C9471
:105AC0001294FCF789FA00B1FEE70F210323CDE918
:105AD00001130421CDE9030005900DEB0100FCF753
